:40000000023A75008F828E83E0540100000070F82278FFE4F6D8FD023B0D7E007F9612602D900005E060031253AB900003E475F001120CF8FEE5F07803C333CE33CED8F9CD
:40004000249EF58274003EAF8290188CF0A3EFF0E02404FF90188CE03400A807FC7D017B017A0079967E007F0412125C90188CE0FEA3E0F5828E83E014B42C004003020189
:400080001390008F75F003A4C58325F0C5837302012202012602013A02015002018202019D0201E002022C0201E302022F0202780202D30203E102043502001A02001A020D
:4000C00004890204A70205310205720209D60205D20205FF02064A02067B02072B0207500207B00207F10208940208B70208F80209390209D60209D60209D60209D602090C
:40010000D60209D6020AD7020AE6020B11020B4E020B76900004E024FFF0900003E034FFF022127F742290188CE0FEA3E0FF127ADF900003EEF0A3EFF02290188CE0FEA308
:40014000E0FF127ADF900003EEF0A3EFF002001A90188CE0FEA3E0F5828E83A3E0FF127AF7AE02AF01901892EEF0A3EFF0F8AC027D017B017A0079967E007F0412125C025E
:40018000001A90188CE0FEA3E0F5828E83A3E0FF127AF7AE02AF0112584802001A90188CE0FCA3E0FDF5828C83A3A3E0FE8D828C83A3E0FDEEEDFF901892EEF0A3EFF0C3C6
:4001C00090009DE09F90009CE09E500302001A900004E004F07006900003E004F002001A127CBA90188CE0FCA3E0FDF5828C83A3E0FF74017E00A807088005C333CE33CE05
:40020000D8F9FF901890EEF0A3EFF0900008E05EFEA3E05F4E700302001AAF05AE04127A4C900003EEF0A3EFF002001A127CBA90188CE0FCA3E0FDF5828C83A3E0FF740121
:400240007E00A807088005C333CE33CED8F9FF901890EEF0A3EFF0900008E05EFEA3E05F4E600302001AAF05AE04127A4C900003EEF0A3EFF002001A90188CE0FCA3E0FD37
:40028000F5828C83A3E0FF74017E00A807088005C333CE33CED8F9FF901890EEF0A3EFF090000AE04EF0A3E04FF08D828C83A3A3E07012901890E0FEA3E0FF90000AE06E1A
:4002C000F0A3E06FF090000AE0FEA3E0FF127C6C02001A90188CE0FEA3E0F5828E83A3A3E0FF1274E8EF14FF901890E4F0A3EFF090188CE0FEA3E0F5828E83A3E075F008CF
:40030000A424F6F582E5F03409AF82FE90188EF0A3EFF0AA06F97B011263BD901953E0FF901890E0FCA3E0FD6F7001EC6029AF0590188EE0FCA3E0AA04F97B017D01125B2D
:40034000D1901953E0FF90188EE0FCA3E0AA04F97B017D01125BD190188CE0FEA3E0F5828E83A3E0901952F090188EE0FEA3E0FF2404F582E43EF583E0FD8F828E83E04DD7
:40038000901966F090188EE0A3E0FF2405F582E43EF583E0FD8F828E83A3E04D901967F090188EE0A3E0FF2406F582E43EF583E0FD8F828E83A3A3E04D901968F090188E21
:4003C000E0A3E0FF2407F582E43EF583E0FD8F828E83A3A3A3E04D901969F0127E9802001A90188CE0FEA3E0F5828E83A3A3E0FF1274E8EF14FF7E00901890EEF0A3EFF03C
:4004000090188CE0FCA3E0F5828C83A3E075F008A424F6F582E5F03409AD82FC90188EF0A3EDF02404FDE43CFAA9057B017D01125C3A02035790188CE0FEA3E0F5828E8393
:40044000A3A3E0FF1274E8EF14FF7E00901890EEF0A3EFF090188CE0FCA3E0F5828C83A3E075F008A424F6F582E5F03409AD82FC90188EF0A3EDF02404FDE43CFAA9057B48
:4004800001E4FD125C3A02035790188CE0FEA3E0F5828E83A3E0FF7E00901890EEF0A3EFF012807D02001A127CBA90188CE0FCA3E0FDF5828C83A3E0FF74017E00A80708EC
:4004C0008005C333CE33CED8F9FF901890EEF0A3EFF090194CE05EF0A3E05FF08D828C83A3A3E0FF74017E00A807088005C333CE33CED8F9FF901890EEF0A3EFF090000A1C
:40050000E04EF0A3E04FF090194CE07002A3E07012901890E0FEA3E0FF90000AE06EF0A3E06FF090000AE0FEA3E0FF127C6C02001A127CBA90188CE0FCA3E0FDF5828C83CF
:40054000A3E0FF900008E0FEA3E0A807088005CEC313CE13D8F9FF901890EEF0A3EFF0FB8D828C83A3A3E0FFEB5401FD127E0A02001A90188CE0FCA3E0FDF5828C83A3A34A
:40058000E0FF74017E00A807088005C333CE33CED8F9FF901890EEF0A3EFF090000AE04EF0A3E04FF08D828C83A3E0FF127E19EF7012901890E0FEA3E0FF90000AE06EF05C
:4005C000A3E06FF090000AE0FEA3E0FF127C6C02001A90188CE0FEA3E0F5828E83A3E0FF127E19EF700302001A90188CE0FEA3E0FF127A4C900003EEF0A3EFF002001A9038
:40060000188CE0FEA3E0F5828E83A3E0FF127AF7AE02AF0112584890188CE0FEA3E0F5828E83A3A3E0FF127AF7AE02AF01901892EEF0A3EFF0F8AC027D017B017A00799A2A
:400640007E007F0412125C02001A90188CE0FEA3E0F5828E83A3E0FF127AF7AE02AF01901892EEF0A3EFF0F5828E83E4F0A3F08F828E83A3A3F0A3F002001A90188CE0FEB9
:40068000A3E0F5828E83A3E0FF127AF7AE02AF0112584890188CE0FEA3E0F5828E83A3A3E0FF127AF7AE02AF01901892EEF0A3EFF090009BE02400FD90009AE034778F8267
:4006C0008E838DF0120CE28F828E83E0FEA3E0D3947FEE94BB4023901892E0FEA3E0FFF5828E83748975F000120CE28F828E83A3A3E475F001120CE28013901892E0FEA3DF
:40070000E0F5828E83744475F080120CE290009CE0FEA3E0FF901892E0FCA3E0F5828C83A3A3EE8FF0120CE202015090188CE0FCA3E0FDF5828C83A3A3E0FE8D828C83A308
:40074000E0FDEEEDFF90000CEEF0A3EFF002001A90188CE0FEA3E0F5828E83A3E0FF127AF7AE02AF01901892EEF0A3EFF0F5828E83A3A3E0FEA3E0FF90000CE0FCA3E0FD68
:40078000C3EF9DEE9C4015901892E0FEA3E0240AF582E43EF5837401F002001A901892E0FEA3E0240AF582E43EF583E4F002001A90188CE0FEA3E0F5828E83A3E0FF127ABB
:4007C000F7AE02AF01901892EEF0A3EFF0240AF582E43EF583E0700302001A90188CE0FEA3E0FF127A4C900003EEF0A3EFF002001A90188CE0FEA3E0F5828E83A3E0FF122E
:400800007AF7AE02AF01901892EEF0A3EFF0F8AC027D017B017A0079967E007F0412125C90000CE0FEA3E0FF901892E0FCA3E0FD2404F582E43CF583EEF0A3EFF0ED240861
:40084000F582E43CF5837401F090188CE0FEA3E0F5828E83A3E0FF7401A807088002C333D8FCFFED2409F582E43CF583EFF0ED2406F582E43CF583E4F0A3F0900005E0FFE5
:40088000ED2409F582E43CF583E0FEEF4E900005F002001A90188CE0FEA3E0F5828E83A3E0FF127AF7AE02AF01901892EEF0A3EFF0124EC802001A90188CE0FEA3E0F582E7
:4008C0008E83A3E0FF127AF7AE02AF01901892EEF0A3EFF02408F582E43EF583E0700302001A90188CE0FEA3E0FF127A4C900003EEF0A3EFF002001A90188CE0FEA3E0F537
:40090000828E83A3E0FF127AF7AE02AF01901892EEF0A3EFF02408F582E43EF583E0600302001A90188CE0FEA3E0FF127A4C900003EEF0A3EFF002001A90188CE0FEA3E079
:40094000F5828E83A3E0FF127AF7AE02AF01901892EEF0FCA3EFF0FD90188CE0FEA3E0F5828E83A3A3E0FF74017E00A807088005C333CE33CED8F9901891F0EE901890F0B1
:40098000ED2408F582E43CF583E0700302001A901892E0FEA3E02406F582E43EF583C083C082E0FEA3E0FF901890E0FCA3E0FDEE4CFEEF4DFFD082D083EEF0A3EFF0900049
:4009C0000AE04CFEA3E04DFF90000AEEF0A3EFF0127C6C02001A90188CE0FEA3E0F5828E83A3E0FF127E19901892EFF090188CE0FEA3E0F5828E83A3A3E0FF1274E890182B
:400A000093EFF090188CE0FEA3E0F5828E83E024EB605A24F3B40600400302001A900A2B75F003A4C58325F0C58373020A3D020A77020A84020A95020AA5020AB5901893BB
:400A4000E0FF901892E0FEB507057401F08013EED39F40089018927402F080069018927404F0901892E0900007F002001A901893E0901892F08047901893E0FF901892E059
:400A80002FF0803A901892E0FFA3E0FEC3EF9E901892F08029901892E0FFA3E0FEEF5E901892F08019901892E0FFA3E0FEEF4E901892F08009901893E0F4901892F090188B
:400AC0008CE0FEA3E0F5828E83A3E0FF901892E0FD127E0A02001A90188CE0FEA3E0FF127ADF12681822900006E07004127F7422900006E014F075F002A42416F582E5F063
:400B00003400F583E0FFA3E0900003CFF0A3EFF02290188CE0FEA3E0F5828E83A3E0FF127AF7AF01901892EAF0A3EFF090188CE0FEA3E0FF127A4C901892E0FCA3E0240B15
:400B4000F582E43CF583EEF0A3EFF002001A90188CE0FEA3E0FFF5828E83A3A3E0FD900007E05D700302001A127ADF900003EEF0A3EFF002001A127C0402001A22020C9A56
:400B8000EC5D046005E859047003020C90120C5B580460F6EC4860F2EC7004FDFEFF22C860DB2481C85009C39860025006020C979850CAF582E9294B4A7005AB82020C8679
:400BC00075F0007C1A7880C3EF9BEE9AED99400DC3EF9BFFEE9AFEED99FDE842F0DC23ACF0D0E0FFD0E0FED0E0FDAB8220E7101BEB60BAEC2CFCEF33FFEE33FEED33FD026F
:400C00000C72E803F830E705C0F075F000EF2FFFEE33FEED33FD40B830E7C280AA75F020800E75F010800575F0087D007E007F003392D530D503120E75EC334010EF33FF13
:400C4000EE33FEED33FDEC33FCD5F0ED22E5F0247EA2D513CC92E7CDCEFF22E9D2E7C933E833F892D5EDD2E7CD33EC33FC5002B2D522EC30E7100FBF000C0EBE00080DBDE8
:400C800000040BEB6014A2D5EB13FCED92E7FD2274FFFCFDFEFF22E480F8A2D574FF13FC7D80E480EFBB010689828A83E0225002E722BBFE02E32289828A83E49322BB013C
:400CC0000689828A83F0225002F722BBFE01F322EF8DF0A4A8F0CF8CF0A428CE8DF0A42EFE22C5F0F8A3E028F0C5F0F8E582158270021583E038F022A3F8E0C5F025F0F032
:400D0000E582158270021583E0C838F0E822BB010A89828A83E0F5F0A3E022500687F009E71922BBFE07E3F5F009E3192289828A83E493F5F074019322BB010A89828A8366
:400D4000F0E5F0A3F0225006F709A7F01922BBFE06F3E5F009F31922E88FF0A4CC8BF0A42CFCE98EF0A42CFC8AF0EDA42CFCEA8EF0A4CDA8F08BF0A42DCC3825F0FDE98F44
:400D8000F0A42CCD35F0FCEB8EF0A4FEA9F0EB8FF0A4CFC5F02ECD39FEE43CFCEAA42DCE35F0FDE43CFC2275F008758200EF2FFFEE33FECD33CDCC33CCC58233C5829BED97
:400DC0009AEC99E58298400CF582EE9BFEED9AFDEC99FC0FD5F0D6E4CEFBE4CDFAE4CCF9A88222B800C1B90059BA002DEC8BF084CFCECDFCE5F0CBF97818EF2FFFEE33FE67
:400E0000ED33FDEC33FCEB33FB10D703994004EB99FB0FD8E5E4F9FA227818EF2FFFEE33FEED33FDEC33FCC933C910D7059BE99A4007EC9BFCE99AF90FD8E0E4C9FAE4CC1F
:400E4000FB2275F010EF2FFFEE33FEED33FDCC33CCC833C810D7079BEC9AE899400AED9BFDEC9AFCE899F80FD5F0DAE4CDFBE4CCFAE4C8F922C3E49FFFE49EFEE49DFDE4AD
:400E80009CFC22EB9FF5F0EA9E42F0E99D42F0EC6480C864809845F022EB9FF5F0EA9E42F0E99D42F0E89C45F022E8600FECC313FCED13FDEE13FEEF13FFD8F122E860101B
:400EC000ECA2E713FCED13FDEE13FEEF13FFD8F022E8600FEFC333FFEE33FEED33FDEC33FCD8F122BB010789828A8302128E5005E9F8021282BBFE05E9F802129A89828ADF
:400F0000830212A6BB010789828A830212C35005E9F80212B6BBFE05E9F80212CF89828A830212DCECF0A3EDF0A3EEF0A3EFF022BB010789828A830212FE5005E9F8021280
:400F4000ECBBFE05E9F802131089828A83021322BB011A89828A83D0F0D0E0F8D0E0F9D0E0FAD0E0FBE8C0E0C0F00213075016E9F8D083D082D0E0F9D0E0FAD0E0FBC0829E
:400F8000C0830212F5BBFE16E9F8D083D082D0E0F9D0E0FAD0E0FBC082C08302131922D083D082F8E4937012740193700DA3A393F8740193F5828883E4737402936860EF30
:400FC000A3A3A380DFEC8EF0A4CCC5F0CCCDF8EFA4CEC5F02DFDE43CFCE8A42EC8C5F03DFDE43CFCEFA4FFE5F028FEE43DFDE43CFC22EF4E6012EF60010EEDBB010B8982EB
:401000008A83F0A3DFFCDEFA2289F05007F709DFFCA9F022BBFEFCF309DFFCA9F022E3F5F009E208B5F06BDFF58067E3F5F009E608B5F05EDFF5805A87F009E608B5F05233
:40104000DFF6804E87F009E208B5F046DFF6804288828C8387F009E0A3B5F036DFF6803288828C8387F009E493A3B5F025DFF5802188828C83E3F5F009E0A3B5F014DFF577
:40108000801088828C83E3F5F009E493A3B5F002DFF4021139808780E9809080D48034801580648074809D80B7808D80A38047806A803202114588848C8589828A83E493F6
:4010C000F5F0A30586E493A30586B5F06CDFEFDEED806689828A83E493F5F0A3E208B5F058DFF4805489828A83E0F5F0A3E608B5F047DFF5804389828A83E0F5F0A3E208A8
:40110000B5F036DFF5803289828A83E493F5F0A3E608B5F024DFF480208002804388848C8589828A83E493F5F0A30586E0A30586B5F006DFF0DEEE80007FFFB5F0020F22DF
:4011400040027F012288848C8589828A83E0F5F0A30586E0A30586B5F0DFDFF1DEEF80D988848C8589828A83E0F5F0A30586E493A30586B5F0C3DFF0DEEE80BD88F0EF6007
:40118000010E4E60BFED2402B4040050ACF582EB2402B4040050A2232345822390109573E709F608DFFA8046E709F208DFFA803E88828C83E709F0A3DFFA8032E309F608C3
:4011C000DFFA806EE309F208DFFA806688828C83E309F0A3DFFA805A89828A83E0A3F608DFFA804E89828A83E0A3F208DFFA804280D280FA80C680D4805580F280298010E2
:4012000080A680EA809A80A880DA80E280CA802988848C8589828A83E493A30586F0A30586DFF5DEF3800B89828A83E493A3F608DFF9ECFAA9F0EDFB2288848C8589828AC2
:4012400083E0A30586F0A30586DFF6DEF480E389828A83E493A3F208DFF980D688F0EF60010E4E60CD88F0ED2402B4040050C3F582EB2402B4040050B9232345822390119A
:40128000F073E6FC08E6FD08E6FE08E6FF22E0FCA3E0FDA3E0FEA3E0FF22E2FC08E2FD08E2FE08E2FF22E493FC740193FD740293FE740393FF22E6FB08E6F908E6FA08E682
:4012C000CBF822E0F8A3E0F9A3E0FAA3E0FB22E2FB08E2F908E2FA08E2CBF822E493F8740193F9740293FA740393FB22E6FB08E6FA08E6F922EBF608EAF608E9F622E0FB0C
:40130000A3E0FAA3E0F922EBF0A3EAF0A3E9F022E2FB08E2FA08E2F922EBF208EAF208E9F222E493FB740193FA740293F922901922EFF0E4A3F0A3F0901920F0FF12763E46
:401340007F0212763E127619901921EFF012763E901921E0120F9F19140013E202142C0614570714910814970914AC0A14C10B14EA0C15180D15260E15851115971215A614
:401380001315DC14160F15161516162617169A1816B21917431A17491B17611C176D1D177E1E17911F17C72017D82115552217EB23180A2418302514072618562718642814
:4013C00018902918AB2A18BC2B18CD2C18DE3C18F63D18FC3E000013D99019207404F0021914127BDAEF7003021345127619901925EFF0127619901926EFF0FD901925E099
:40140000FF127E8B021345127BDAEF7003021345127619901925EFF0127619901926EFF0FD901925E0FF125E3B021345127619901887EFF0901887E0FF14F0EF6009127628
:4014400019126D3BEF70ED901887E004FFF012763E127F0D021914127619901887EFF0901887E0FF14F0EF70030219147E187F88125DD6EF700CFF12763EE4FF12763E02A9
:4014800019147F0112763E901888E0FF12763E80CE127536021345127BDAEF7003021345127619127C5812763E021345127BDAEF70030213451276191278E912763E0213A3
:4014C00045127BDAEF7003021345127619901927EFF0127E7190192BEEF0FCA3EFF0FD901927E0FF127D3C021345127BDAEF7003021345127619901928EFF01243EC9019D4
:4015000028E025E02487F582E43419F583E0FEA3E0FF127E5502134512527F90196EE0FF12763E021345127925EF700302134590196EE0FF12763E90196FE075F00AA4FF09
:40154000901971E02FFF901970E035F0FE7D0A1266A4021345127925EF7006127E71021345127619901947EFF0127619901948EFF07A197B477D02E4FF126E21EF6003022D
:401580001345021345127BDAEF7003021345127FED12763E021345127BDAEF7003021345127E71021345127619901935EFF0127E71901936EEF0A3EFF0901935E0600FE48B
:4015C00090193AF0A3F074FF901938F0A3F090193AE0FEA3E0FF127E55021345127E717E00EF541FFF7C007D06120CD090193DE02FFF90193CE03EFAA9077B01901887EB28
:40160000F0A3EAF0A3E9F0AE021266A4021345127B3F021345127619900000EFF012001A127C04021345127619901887EFF0901887E0FF14F0EF700302191412703290189F
:4016400088EEF0A3EFF04E70099019207405F0021914127619901888E0FCA3E0F5828C83EFF0127619901888E0FCA3E0F5828C83A3EFF0127619901888E0FCA3E0F5828C5A
:4016800083A3A3EFF0127619901888E0FCA3E0F5828C83A3A3A3EFF08094900000E0FF12763E127F7D127E557F807E44127E55021345127E711275A8901887EEF0A3EFF009
:4016C0004E70099019207405F0021914901887E0FEA3E0F5828E83E0FF12763E901887E0FEA3E0F5828E83A3E0FF12763E901887E0FEA3E0F5828E83A3A3E0FF12763E9012
:401700001887E0FEA3E0F5828E83A3A3A3E0FF12763E901887E0FEA3E02404F582E43EF583E0FEA3E0FF127E55901887E0FEA3E02406F582E43EF583E0FEA3E0FF127E5575
:40174000021914127CA7021345127619901887EFF0127619AD07901887E0FF127E0A021345127619127E1912763E02134512761990193EEFF0127E7E126C45021345901900
:401780002EE0FF12763E90192FE0FF12763E021345127619127AF7AE02AF01901887EEF0A3EFF0F5828E83E0FEA3E0FF127E55901887E0FEA3E0F5828E83A3A3E0FEA3E0E0
:4017C000FF127E5502134512761990193FEFF0127E7E1271AE021345901930E0FF12763E901931E0FF12763E021345127BDAEF7003021345901952E0FF126C84900E64E072
:40180000FEA3E0FF127E55021345127619901940EFF0127619901941EFF0127619901942EFF0127619901943EFF0127E7E021345901940E0FF12763E901941E0FF12763EBA
:40184000901942E0FF12763E901943E0FF12763E127662021345122833900E5EE0FF12763E021345127941EF7003021345900E5EE0FF12763E900E5FE075F010A42480F5E3
:4018800082E5F0340EAF82FE7D101266A4021345127BDAEF7003021345127619127EB27E0E7F667D061266A40213451278AB90194CE0FEA3E0FF127E55021345127E719093
:4018C0001929EEF0A3EFF0127C6C021345127E71901929EEF0A3EFF012807D0213457EF07F00127E557E907F24127E557EFF7FE0127E550213451268600213457EF07F00B2
:40190000127E5590194BE0901934F09019337401F0021345901920E09018E0F0901924E09018E1F022E49018D6F09018D6E0FFC39409507D75F00AEFA424B3F582E5F034E8
:4019400014F583E4F075F00AEFA424B5F582E5F03414F583E4F075F00AEFA424B4F582E5F03414F583E4F075F00AEFA424B6F582E5F03414F583E4F075F00AEFA424B8F503
:4019800082E5F03414F583E4F075F00AEFA424BBF582E5F03414F583E4F0A3F074142FF582E43416F583E4F09018D6E004F002192A901613E014FF12786B740429F9E43A50
:4019C000FA120CA59018D6F0E92401F9E43AFA120F309018D8EBF0A3EAF0A3E9F0E4FC9018D6E0FFECC39F4003021AE89018D8E0FBA3E0FAA3E02402F9E43AFA120CA5FFD2
:401A00009018D7F0540FF0A3E0A3E0FAA3E02403F9E43AFA120CA55403B401047E0180027E00EF30E7329018D7E0FF75F00AA424B4F582E5F03414F5837401F0EE60047D16
:401A40000780027D0D75F00AEFA424B8F582E5F03414F583EDF0802F9018D7E0FF75F00AA424B4F582E5F03414F583E4F0EE60047E0580027E0975F00AEFA424B8F582E59C
:401A8000F03414F583EEF09018D8E0FBA3E0FAA3E02404F9E43AFA120D0EFFAEF09018D7E0FD75F00AA424BBF582E5F03414F583EEF0A3EFF09018D8E0FBA3E0FAA3E02401
:401AC00002F9E43AFA120CA5FF75F00AEDA424B7F582E5F03414F583EFF00C9018D9E475F007120CE20219DFE4FBFA9018D604F0E4FCECC394804003021BFF74802CF58290
:401B0000E43460F5837404F0740E2CF582E43460F5837401F09018D6E0FD75F00AA424B9F582E5F03414F583EAF0A3EBF075F00AEDA424BBF582E5F03414F583E0FEA3E0D8
:401B40002BFBEE3AFAEEFF740C2CF582E43460F583EFF075F00AEDA424BBF582E5F03414F583E0A3E0FF740D2CF582E43460F583EFF075F00AEDA424B9F582E5F03414F598
:401B800083E0A3E0FF74862CF582E43460F583EFF075F00AEDA424B9F582E5F03414F583E0FEA3E0EEFF74872CF582E43460F583EFF075F00AEDA424B9F582E5F03414F5CA
:401BC00083E0A3E0FF74842CF582E43460F583EFF075F00AEDA424B9F582E5F03414F583E0FEA3E0EEFF74852CF582E43460F583EFF09018D6E004F074102CFC021AF29058
:401C0000600A74FFF022E49018CFF09014A9F0A3F0906000E020E703021E16A3E07003021D8B24F87003021DF924026003021EBF906003E0B401361279079018D3EBF0A392
:401C4000EAF0A3E9F02401F9E43AFA120F309014ABEBF0A3EAF0A3E9F09014A9E4F0A37412F0126F979018CFEFF0021EBF906003E064027065906002E0FF12786B9018D38E
:401C8000EBF0A3EAF0A3E9F09018D3E0FBA3E0FAA3E02401F9E43AFA120F309014ABEBF0A3EAF0A3E9F02403F9E43AFA120CA5FE9014ABE0FBA3E0FAA3E02402F9E43AFAF6
:401CC000120CA5FDEEEDFF9014A9EEF0A3EFF0126F979018CFEFF0021EBF906003E064036003021D80FF9018D074FFF0A3748FF0A37471F0906002E0D39F401E9018D0E032
:401D0000FBA3E0FAA3E0F9120CA5FE600DFD9018D1E48DF0120CE20F80DA908F56E493FF906002E0B507299018D074FFF0A3748FF0A374A4F09019E0E060159019E3E0F940
:401D4000A3E0FAA3E09018D0C9F0A3EAF0A3E9F09018D0E0FBA3E0FAA3E0F9120CA5FF7003021EBF9014A9E4F0A3EFF0A3EBF0A3EAF0A3E9F0126F979018CFEFF0021EBF72
:401D80001280959018CFEFF0021EBF906000E05403603824FE6003021EBF9014A9E4F0A304F0906004E0540775F00AA424B5F9741435F0FA9014AB7401F0A3EAF0A3E9F084
:401DC000126F979018CFEFF0021EBF9014A9E4F0A37402F0901511E09019E1F0E4A3F07B019014AB04F0A37419F0A374E1F0126F979018CFEFF0021EBF9014A9E4F0A30409
:401E0000F0A3F0A37416F0A37413F0126F979018CFEFF0021EBF906001E014604A24FE607324FA601D24FE602E24066003021EBF906002E0901620F0127F009018CFEFF0F1
:401E4000807D906002E0901613F0121925127F009018CFEFF08068127B56EF6062127F009018CFEFF08058906000E05403601424FE704C906002E070461251E79018CFEFC7
:401E8000F0803C901511E054FDF0127F009018CFEFF0802B906000E05403601424FE701F906002E0701912514E9018CFEFF0800F901511E054FDF0127F009018CFEFF09082
:401EC00018CFE0FF229018B4EBF0A3EAF0A3E9F0E49018B9F0A304F09018B9E0C3940340030221769018B87401F0E49018B7F09018B7E0C394084003022167A3E0FF90A072
:401F00000AE05F6003022150FFFEFDFC9018BB120F249018B4E0FBA3E0FAA3E02404F9E43AFA120CA5601A9018BBE0FCA3E0FDA3E0FEA3E0FFEEED4420FDEC9018BB120FC9
:401F4000249018B4E0FBA3E0FAA3E02405F9E43AFA120CA5601A9018BBE0FCA3E0FDA3E0FEA3E0FFEEED4410FDEC9018BB120F249018B4E0FBA3E0FAA3E02406F9E43AFA9B
:401F8000120CA5D39408504F9018BBE0F8A3E0F9A3E0FAA3E0FBC000C001C002C0039018B4E0FBA3E0FAA3E02406F9E43AFA120CA5FFE4FCFDFE7810120ED1D003D002D09B
:401FC00001D000EB4FFFEA4EFEE94DFDE84CFC9018BB120F24801A9018BBE0FCA3E0FDA3E0FEA3E0FFEEED4408FDEC9018BB120F249018B4E0FBA3E0FAA3E02407F9E43A09
:40200000FA120CA560199018BBE0FCA3E0FDA3E0FEA3E04404FFEEEDEC9018BB120F249018B4E0FBA3E0FAA3E02405F9E43AFA120CA5601A9018B4E0A3E0FAA3E0F9120EEE
:40204000E47803120ED19018BF120F2480199018B4E0FBA3E0FAA3E0F9120EE47815120ED19018BF120F249018B7E075F010A42424FFE5F034A0FEC006C0079018BFE0FC57
:40208000A3E0FDA3E0FEA3E0FF9018C5120F24D007D006126515E4FFEFC39408504F9018B4E0FBA3E0FAA3E02408F9E43AFA120F30E92FF9E43AFA120CA5FEEFD39403409A
:4020C00006740B9FFD8005C374039FFD9018B7E075F010A42428F582E5F034A0F583E5822DF582E43583F583EEF00F80AB9018B7E075F010A42420FFE5F034A0FEC006C029
:40210000079018BBE0FCA3E0FDA3E0FEA3E04408FFEEED4480FDEC9018C5120F24D007D0061265159018B7E075F010A42420FFE5F034A0FEC006C007E47F01FEFDFC901845
:40214000C5120F24D007D006126515E49018BAF09018B8E0FF25E0F09018BAE060099018B7E004F0021EEF9018BAE060099018B9E004F0021ED89018BAE0FF22C0E0C0F03A
:40218000C083C082C085C084C086758600C093759300C0D075D000C000C001C002C003C004C005C006C0079049D7E09019ACF09019B5E0FF20E6030223BE9019ACE0FE2033
:4021C000E0030223BEEF24BD602114700302229714700302233824FD700302239C24E870030223A5241E60030223B1EE540AFD7C006408705D9019B5E054436442704590CB
:4022000019ADE0D3940040279019B2E0FBA3E0FAA3E0F9120CA59049D8F09049D77404F09019B87401F09019B57444F00223BE9049D7E4F09019AEE04402F09019B57410FD
:40224000F00223BE9049D7E4F09019B57445F00223BEED640A4C70349019B9E030E0189019B57460F09019AEE04428F07F011277E61280230223BE9049D7E4F09019B574D6
:4022800010F09019AEE04420F00223BE7F011277E61280230223BE9019ACE054027065A3E0FF9019B8E0FEC39F50259019B2E0FBA3E0FAA3E02EF9E43AFA120CA59049D848
:4022C000F09049D77404F09019B8E004F00223BE9019B9E030E0189019B57460F09019AEE0440AF07F011277E61280230223BE9049D7E4F09019B57410F09019AEE0440263
:40230000F00223BE9019B9E030E0189019B57460F09019AEE0441AF07F011277E61280230223BE9049D7E4F09019B57410F09019AEE04412F00223BE9049D8E0FF9019AF94
:40234000E0FBA3E0FAA3E0F99019B7E0FEE92EF9E43AFAEF120CBE9019B7E004F09019BAE0FF9019B7E0C39F50089049D77410F0804C9019B9E030E00F9019B57460F090E5
:4023800019AEE04409F080369049D7E4F09019B57410F09019AEE04401F080229019AEE04480F080199019AEE04402F0128023800D9019B57410F09019AEE04480F0D00758
:4023C000D006D005D004D003D002D001D000D0D0D093D086D084D085D082D083D0F0D0E0C2AF1223E8D2AF22329018A0EBF0A3EAF0A3E9F0A37401F0120CA575F020A4246A
:40240000A0FFE5F034A0FEC006C007E92401F9E43AFA120EE4EF4480FFEEED4480FDEC9018C5120F24D007D0061265159018A0E0FBA3E0FAA3E0F9120CA575F020A424A0B5
:40244000FFE5F034A0FE1268EDEF547FFFE4FEED547FFDE4FCC004C005C006C0079018A0E0FBA3E0FAA3E02401F9E43AFA120EE4EF547FFBEEFAED547FF9ECF8D007D006AD
:40248000D005D004C3120E99600302261F9018A0E0FBA3E0FAA3E0F9120CA575F020A424B0FFE5F034A0FEC006C007E92405F9E43AFA120EE49018C5120F24D007D00612A6
:4024C00065159018A0E0FBA3E0FAA3E0F9120CA575F020A424B0FFE5F034A0FE1268ED9018A0E0FBA3E0FAA3E02405F9E43AFA120F04C3120E99600302261F9018A0E0FBAE
:40250000A3E0FAA3E0F9120CA575F020A424B4FFE5F034A0FEC006C007E92409F9E43AFA120EE49018C5120F24D007D0061265159018A0E0FBA3E0FAA3E0F9120CA575F051
:4025400020A424B4FFE5F034A0FE1268ED9018A0E0FBA3E0FAA3E02409F9E43AFA120F04C3120E99600302261F9018A0E0FBA3E0FAA3E0F9120CA575F020A424B8FFE5F04E
:4025800034A0FEC006C00774FFFFFEFDFC9018C5120F24D007D0061265159018A0E0FBA3E0FAA3E0F9120CA575F020A424B8FFE5F034A0FE1268ED74FFFBFAF9F8C3120E3B
:4025C00099705C9018A0E0FBA3E0FAA3E0F9120CA575F020A424BCFFE5F034A0FEC006C007E4FFFEFDFC9018C5120F24D007D0061265159018A0E0FBA3E0FAA3E0F9120C5C
:40260000A575F020A424BCFFE5F034A0FE1268EDE4FBFAF9F8C3120E9970049018A3F09018A3E0FF227E187F8790188B7418F0A37487F07B007A4079807F177E007D1A7C70
:4026400000127D2A7B007A4079847F4D7E007D1A7C00127D2A7B007A4079887F4D7E007D1A7C00127D2A7B007A40798C7F7F7E077D107C00127D2A7B007A4079907FBF7E94
:40268000037D127C00127D2A7B007A4179007FB87E007D187C00127D2A9043007404F0904000E4F09042127416F0904210740FF0E47F0EFEFDFC901887120F2490188BE0A4
:4026C000FEA3E0F5828E83E0FCA3E0FDA3E0FEA3E0FFEC4D4E4F6028901887E0FCA3E0FDA3E0FEA3E0FF74FFEF24FFFFEE34FFFEED34FFFDEC34FFFC901887120F2480BCFB
:40270000904210E0FFE47F38FEFDFC901887120F2490188BE0FEA3E0F5828E83E0FCA3E0FDA3E0FEA3E0FFEC4D4E4F6030904210E054806028901887E0FCA3E0FDA3E0FEC7
:40274000A3E0FF74FFEF24FFFFEE34FFFEED34FFFDEC34FFFC901887120F2480B47B0C7A01790F127F259046A1EFF09042007452F07B007A4279227D107C07127E289040CC
:4027800000E4F0FB7A4279207D517C10127E28E490188DF07F0EFEFDFC901887120F2490188BE0FEA3E0F5828E83E0FCA3E0FDA3E0FEA3E0FFEC4D4E4F604290188DE06476
:4027C00003603A904225E05401FF90188DE0FE25E04F5403F0901887E0FCA3E0FDA3E0FEA3E0FF74FFEF24FFFFEE34FFFEED34FFFDEC34FFFC901887120F2480A27B007A6F
:402800004079047D037C01127E28904004E4F0904006F0FB7A4079087D48FC127E289040017402F09043A2E0441FF09043A1E04401F02290189D7401F0A3740EF0A3748029
:40284000F090189DE0FBA3E0FAA3E0F8AC02AD037B017A0E796C7E007F0812125C90189DE0FBA3E0FAA3E02408F9E43AA801FCAD037B017A0E79767E007F0812125C900EB6
:402880005E7401F0900F84F0127808E4900FADF0900FACF09010CE04F0E47F28FEFDFCA3120F247FF97EFF7D1F7C009010D3120F24E4FFFE7D407C449010D7120F247B012E
:4028C0007A1079CE1223E99010CE7402F0E47F28FEFDFCA3120F247FF97EFF7DFF7C039010D3120F24E4FFFEFD7C709010D7120F247B017A1079CE1223E97E187F8A7D01F5
:40290000126F307E187F8A126A84E4FF126568127D067F01126568900FAAE06003022A3C900FADE06003022A3C7F0212656890189B740BF0A374B9F0D390189CE094C590F4
:40294000189BE0940B50367E187F8A7D03126F3090189BE0FCA3E090188BF0ECA3F07E187F8A126A84127D5E7F0312656890189CE004F0700690189BE004F080BB90189D79
:402980007401F0A3740EF0A37490F090189A7401F0900E5EE0FF90189AE0FEC39F4003022A31EE04900F86F07E187F8A7D02126F30788B7C187D0190189DE0FBA3E0FAA337
:4029C000E0F97E007F0712125C7E187F8A126A84127D067E187F8A7D06126F30900F86E090188BF07E187F8A126A84127D067E187F8A7D04126F307E187F8A900F86E0FDA5
:402A0000126CFF127D5E7E187F8A7D05126F307E187F8A900F86E0FD126CFF127D5E90189AE004F090189EE475F010120CE2022991900F867401F07F0412656822904800F8
:402A40007440F0907010E4F0907020F0FB7A4679E8127F25EF4401FD7B007A4679E8127F31E4F535E535C39408502FE53575F005A4249FF582E43480AF82F52A8F2BF583DB
:402A8000E493FB740193FA740293F9740393FC740493FD127829053580CAE4F535E535C394065049E53575F007A424F2F582E4348EAF82F52C8F2DF583E493FB740193FAE6
:402AC000740293F98B2E8A2FF530740393FE7404938E31F532740593F533740693F534AD32AC31FFAE33127152053580B07E807FC71271807C8E7DB47B007A5279007F0737
:402B00007E001271527C8E7DBB7B007A5279087F077E001271527C8E7DC27B007A5279107F077E001271527C8E7DC97B007A5279187F077E001271527C8E7DD07B007A52CE
:402B400079207F077E001271527C8E7DD77B007A5279287F077E001271527C8E7DDE7B007A5279307F077E001271527C8E7DE57B007A5279607F067E001271527C8E7DEBC0
:402B80007B007A5279787F077E00127152127316127B837C8E7D667B007A5179027F087E001271527C8E7D6E7B007A5179127F087E001271527C8E7D767B007A5179C27F34
:402BC000087E001271527C8E7D7E7B007A5179F27F087E001271527C8E7D867B007A5179207F0A7E001271527C8E7D907B007A5179327F087E001271527C8E7D987B007A2C
:402C00005179427F087E001271527C8E7DA07B007A5179507F0A7E001271527C8E7DAA7B007A5179607F0A7E001271529044F47401F0904800E4F01226259048007480F07E
:402C4000127A7E228E288F29900F84E06004122E2022852982852883E024FCB40C004003022E1B902C7175F003A4C58325F0C58373022C95022CAF022E1B022CD7022D2093
:402C8000022CE6022D11022D2F022D6C022D72022DBE022DF27C0E7D76AF29AE28127446900F86E0FDAF29AE28126BC7022E1B900E73E0852982852883A3F0900E7DE0857E
:402CC0002982852883A3A3F0900F86E0FDAF29AE28126BC7022E1BE5292401FFE43528FE125FCD022E1B852982852883A3E0FFC007852982852883A3A3A3E0FE8529828505
:402D00002883A3A3E0FDEEFCEDD0071242F9022E1B852982852883A3E0FF127DFB022E1B852982852883A3E0FF1278CA022E1B852982852883A3E0901861F0A37401F090D3
:402D40001861E0FFA3E0FED39F4003022E1B852982852883A3E5822EF582E43583F583E0FF1275CE901862E004F080D3127C19022E1BE5292401F527E43528F526E49018C9
:402D800061F0901861E0C3940650190527E52770020526FFAE26126414EF6008901861E004F080DE901861E0852982852883A3F0900F86E0FDAF29AE28126BC7805D8529F4
:402DC00082852883A3E0FF126C06E5292401FFE43528A807FC7D017B017A0E79677E007F0512125C900F86E0FDAF29AE28126BC78029127A33E5292401FFE43528A807FC9F
:402E00007D017B017A1979507E007F0212125C900F86E0FDAF29AE28126BC77E007F0122901863EEF0A3EFF090A0E2E030E40E7FE47EA01268ED7803120EAA800C7FE47E90
:402E4000A01268ED7815120EAAEF540F14900F85F0901863E0FEA3E0FFF5828E83E024FC6076147003022F1924F87003022F6E147003022F93147003022FBA240C60030260
:402E80002FD9900F84E07003022FD9900E5EE0C394104003022FD9E0FD04F075F010EDA42480F582E5F0340EAD82901865F0A3EDF0EF2401FFE43EFAA9077B01C002901880
:402EC00065E0FEA3E0AA06F8AC027D01D0027E007F0712125C022FD9900F85E075F010A42480F582E5F0340EAF82FE901865F0A3EFF0901864E02401FD901863E03400FAB4
:402F0000A9057B01EF2408FFE43EA807FC7D017E007F0712125C022FD9900F85E075F010A42480F582E5F0340EAF82FE901865F0A3EFF0901863E0FCA3E0FDF5828C83A3E7
:402F4000E0FB8F828E83E5822407F582E43583F583EBF08D828C83A3A3E0FD8F828E83E582240FF582E43583F583EDF0806B901863E0FEA3E0AA06F97B01789A7C0F7D0160
:402F80007E007F1012125CE4900F89F0900F8804F08046901864E02401FF901863E03400FAA9077B0178677C0E7D017E007F0512125C900E667401F0801F901864E02401D0
:402FC000FF901863E03400FAA9077B0178647C0E7D017E007F0212125C7E007F012202430000411768424119CD004119C8104419CE000000004419C90000FA00411A06FFBF
:4030000060D016500000000028001FFFF9440000000100000028001FFFF9442000000200000028001FFFF9600000000300000000000000000000000004000000000000002B
:40304000000000000005000000000000000000000000060000000000000000000000000700000000000000000000000008000000000000000000000000090000000000002D
:403080000000000000000A0000000000000000000000000B0000000000000000000000000C0000000000000000000000000D0000000000000000000000000E0000000000D4
:4030C000000000000000000F000000000000000000000000604817200000880008000000000100880008000000000200880008000000000300880008000000000400880010
:4031000008000000000500880008000000000600880008000000000700880008000000004419DA000000004319E60000004419C002DC6C004419BB0000BB804119BF304405
:4031400019C45DC000004219A90000411A0700411A0800411A09004112C0004112BD004112BF004112BC004110DB004112C1004112BE004114A7004114A4004114A6004162
:4031800014A3004112C2004114A8004114A5004119E00000E49018CFF0906000E030E705A3E0FF80001273F1906000E020E7569014AE7401F0A37417F0A37487F0906001E2
:4031C000E0244B60042406703C9014B17401F0906001E0901783F09019F5E0FFA3E0901785CFF0A3EFF09014AB7401F0A37417F0A3748EF09014A9E4F0A37440F0126E588D
:403200009018CFEFF0906000E020E70302333F9014AE7401F0A37417F0A3748AF0906001E0245E70030232C624F3607924FA70030232D72412600302333FD39019F4E09447
:40324000409019F3E094004006E4F0A37440F09019F5E0FEA3E0AA06F99018D37401F0A3EAF0A3E9F09019F3E0FEA3E0FFE4FCFD9018D6120F247B017A1779CE123F01904A
:4032800019F3E0FFA3E09014A9CFF0A3EFF0A37401F0A37417F0A374CEF0126F979018CFEFF002333F126CC29014A9EEF0A3EFF0A37401F0A37417F0A374CEF0126F9790A5
:4032C00018CFEFF080799019F6E02400F09019F5E03480F002323AD39019F4E094409019F3E094004006E4F0A37440F09019F5E0FEA3E0AA06F99018D374FFF0A3EAF0A3B1
:40330000E9F09019F3E0FEA3E0FFE4FCFD9018D6120F247B017A1779CE123F019019F3E0FFA3E09014A9CFF0A3EFF0A37401F0A37417F0A374CEF0126F979018CFEFF090ED
:4033400018CFE0FF221270F4EF700F90197BF0A3749AF0E4901972F0FF227FF0127AC7EF700F90197BF0A3749FF0E4901972F0FF229018917419F0A3747DF0E4A3F0901869
:403380008E04F0901890F090188EF0E490188DF090188EE0D3944040030234C190188DE0FF74089F5015E4F090189004F0901892E004F07006901891E004F0E490188FF00D
:4033C000127B6DEF600C1460108000E4901972F0FF2290188FE04401F0127B6DEF600C1460108000E4901972F0FF2290188FE04402F090188FE014602514604C14607224E8
:403400000360030234AA90188EE090197DF090197BE4F0A374CCF0E4901972F0FF22901891E0FEA3E0F5828E83C083C082E0FF901890E0F4FEEF5ED082D083F0127A97EFBB
:403440007068901972F0FF22901891E0FEA3E0F5828E83C083C082E0FF901890E0FEEF4ED082D083F0127AAFEF703F901972F0FF22901972E0FF90188EE0FE6F60CAEED36D
:403480009F4007901893EEF08094901891E0FEA3E0F5828E83E0FF901890E0FEEF5E70C590188EE0901893F0809290188EE004F090188DE004F0901890E0FF25E0F00233B9
:4034C00090901893E0901972F07003A304F07FFF22901861EEF0A3EFF0F5828E83E024FE70030235701470030235A224FD70030235F524056003023651E4900F83F0A3E0B1
:403500007003023651E4F09010CE04F0E47F28FEFDFCA3120F247FF97EFF7D1F7C009010D3120F24E4FFFE7D207C449010D7120F247B017A1079CE1223E99010CE7402F0F1
:40354000E47F28FEFDFCA3120F247FF97EFF7D1F7C009010D3120F24E4FFFEFD7C609010D7120F247B017A1079CE1223E9023651901862E02401FF901861E03400A807FCDC
:403580007D017B017A0E796C7E007F0712117CEF7007900F83F0023651900F837401F0023651900F83E06003023651901861E0FEA3E0FFF5828E83A3E0FD901940E06D60FB
:4035C000030236518F828E83A3A3E0FF901941E06F707E900F837401F0901861E0FEA3E0FF7C0E7D6C127446901861E0FEA3E0FF126AC5805C900F83E07056901861E0FE6D
:40360000A3E0F5828E83A3E0900F86F09010CE7402F0E47F28FEFDFCA3120F247FF97EFF7D1F7C009010D3120F24900F86E0FFE4E42FFFE43403FEE433FDE433FC7815120B
:403640000ED19010D7120F247B017A1079CE1223E97E007F012290189EEFF0A3EBF0A3EAF0A3E9F090189EE0FF14FEC454F09018A5F0E0FE2488FDE43460FAA905A374014D
:40368000F0A3EAF0A3E9F075F00AEFA424B9F582E5F03414F583E0A3E0FF74842EF582E43460F583EFF090189EE075F00AA424B9F582E5F03414F583E0FF9018A5E0248591
:4036C000F582E43460F583EFF0E49018A4F09018A4E0FFD39018A3E09F9018A2E09400402B90189FE0FBA3E475F001120CF8A9F0FA120CA5FF9018A6E0A3E0FAA3E0F58254
:403700008A83EFF09018A4E004F080C29018A2E0FCA3E0FDECFF90189EE0FE75F00AA424B6F582E5F03414F583E04FFF9018A5E0FB240CF582E43460F583EFF0ED740D2B28
:40374000F582E43460F583EDF075F00AEEA424B9F582E5F03414F583E0A3E0FF9018A5E0FD2486F582E43460F583EFF090189EE0FC75F00AA424B9F582E5F03414F583E0A1
:40378000FF74872DF582E43460F583EFF075F00AECA424B4F582E5F03414F583E4F090189EE075F00AA424B8F582E5F03414F583E0FF9018A5E0240EF582E43460F583EF30
:4037C000F0229019FFEFF07B007A007900C003C002C001AE43AF44AA06A9077B01D082D083D0E06B7008E965827003EA65837003023923901785E0F537A3E0F53885373BBF
:40380000753C00AE43AF448F828E83E5822413F582E5833400F583E0FFEF6026AE43AF448F828E83E5822414F582E5833400F583E0FEA3E0FFEF653C7003EE653B600312BE
:40384000484A7BFF7AF07900AE02AF01C3E5389FE5379E5003023923AE43AF448F828E83E5822414F582E5833400F583E53BF0A3E53CF075390085383A7536009019FFE043
:40388000FFE536C39F4003023923AF36748E2FF582E43417F583E0FFAC39AD3AAA43AB448B828A83E5822416F582E5833400F583E5822DF582E5833CF583EFF0AE43AF4400
:4038C0008F828E83E5822413F582E5833400F5837401F00538E5387002053775390085383AE53A4539703712484A85373B753C00AE43AF448F828E83E5822414F582E58357
:403900003400F583E53BF0A3E53CF07BFF7AF07900AE02AF01C3E5389FE5379E4005053602387C2290188EEFF0A3EDF0A3EAF0A3EBF01279E5EF700C90197B04F0A3748DA2
:40394000F07F00227FAA127AC7EF700C90197B04F0A37491F07F00227E197F78127582EF700C90197B04F0A374A9F07F002290188EE0FF901978E06F600D90197B7401F098
:40398000A374ADF07F00227E197F79127582EF700C90197B04F0A374B2F07F0022901979E0600D90197B7401F0A374B6F07F00227E197F7A127582EF700C90197B04F0A328
:4039C00074BBF07F002290197AE06407600BA37401F0A374BFF07F0022E4901892F0901892E0C39408505F7E187F93127582EF700C90197B04F0A374C6F07F002290188FB0
:403A0000E0FF901892E0C39F5016901890E475F001120CF885F082F583E0901894F08005E4901894F0901894E0FF901893E06F600D90197B7401F0A374CFF07F0022901863
:403A400092E004F080987E197F76127582EF700C90197B04F0A374D6F07F00227E197F77127582EF700C90197B04F0A374DAF07F00227FFF227593007583467582E8E044AE
:403A800001F07593009048007440F07581449076BCE4F0A3F0A3F0A3F0907010F0907019F0907020F09076007410F0907604E4F0A37400F0A3E4F0A3F090780074FFF0A378
:403AC000740FF0A37401F0A37422F0A374BCF0A37476F0A3E4F0A3F0A374FFF0A3740FF0A374FFF0A37422F0A374BCF0A37476F0A3E4F0A37410F09070107401F090701436
:403B0000F0E4900FFFF0901FFFF00200117E707F18120004907010F0122A3D126E8F023B5C02746FE493A3F8E493A34003F68001F208DFF48029E493A3F85407240CC8C34D
:403B400033C4540F4420C8834004F456800146F6DFE4800B0102040810204080902FDEE47E019360BCA3FF543F30E509541FFEE493A360010ECF54C025E060A840B8E49349
:403B8000A3FAE493A3F8E493A3C8C582C8CAC583CAF0A3C8C582C8CAC583CADFE9DEE780BE900000E0600312001A901935E07003023C53C390193BE0942090193AE0940025
:403BC0004003023C531278AB901936E0FEA3E0FF90194CE05EFEA3E05FFF901887EEF0A3EFF0901938E06E7003A3E06F6065901887E0FFA3E0901938CFF0A3EFF0A3E475D4
:403C0000F001120CF8AFF0FE7C007D06120CD090193DE02FFF90193CE03EFAA9079018897401F0A3EAF0A3E9F0901887E0F9A3E0FFA3E0FBA3E0FAA3E0C98FF0120D39908B
:403C40001889E0A3E0FAA3E02402F9E43AFEAF0112602D901933E06070A3E0FF90194BE0C39FC394144062125A1BC2AF9019E9E0FF901887E0FCA3E0FDF5828C83A3A3EF39
:403C8000F09019EAE08D828C83A3A3A3F0E4FFFE1275A8AC06AD07901887E0FEA3E0FFF5828E83ECF0A3EDF0EF2404F582E43EF5837444F0A374DBF0EF2406F582E43EF568
:403CC000837480F012F000808A229019EBEEF0A3EFF09019EDECF0A3EDF0904722E0FFEF20E103023DE5AE43AF44EF2402F53FEE3400F53E053FE53FAE3E7002053E14FFBC
:403D00008F828E83E0FF904720EFF0053FE53FAE3E7002053E14FF8F828E83E0FF904720EFF0053FE53FAE3E7002053E14FF8F828E83E0FF904720EFF0904722E0FFEF30CF
:403D4000E103023DE0754000754100AE43AF448F828E83E5822412F582E5833400F583E0FF7E00C3E5419FE5409E5021053FE53FAE3E7002053E14FF8F828E83E0FF90479A
:403D800020EFF00541E5417002054080BE9019EDE0FEA3E0FFEF4E60427540007541009019EDE0FEA3E0FFC3E5419FE5409E502BAE40AF419019EBE0FCA3E0FD8D828C83BB
:403DC000E5822FF582E5833EF583E0FF904720EFF00541E5417002054080C475420780087542098003754204AF422290188AEBF0A3EAF0A3E9F0A37401F0120CA575F010DF
:403E0000A42420FFE5F034A0FEC006C007E92401F9E43AFA120EE4EF4408FFEEED4480FDEC9018C5120F24D007D00612651590188AE0FBA3E0FAA3E0F9120CA575F010A4B5
:403E40002420FFE5F034A0FE1268EDEF54F7FFE4FEED547FFDE4FCC004C005C006C00790188AE0FBA3E0FAA3E02401F9E43AFA120EE4EF54F7FBEEFAED547FF9ECF8D0074B
:403E8000D006D005D004C3120E99706F90188AE0FBA3E0FAA3E0F9120CA575F010A42424FFE5F034A0FEC006C007E92405F9E43AFA120EE49018C5120F24D007D0061265CE
:403EC0001590188AE0FBA3E0FAA3E0F9120CA575F010A42424FFE5F034A0FE1268ED90188AE0FBA3E0FAA3E02405F9E43AFA120F04C3120E99700490188DF090188DE0FFE1
:403F0000229018D0EBF0A3EAF0A3E9F09018DAEBF0A3EAF0A3E9F09018D3E0F9A3E0FAA3E09018DDC9F0A3EAF0A3E9F09018D6E0FCA3E0FDA3E0FEA3E05401FFE4FEFDFC25
:403F4000EF60329018DDE0FBA3E0FAA3E0F9120CA5FF9018DAE0FBA3E0FAA3E0F9EF120CBE9018DBE475F001120CE29018DEE475F001120CE29018D6E0FCA3E0FDA3E0FE8C
:403F8000A3E0FF7801120EBD9018D6120F24E4FFFEFDFC9018D6E0F8A3E0F9A3E0FAA3E0FBC3120E83605D9018D6E0FCA3E0FDA3E0FEA3E0FF74FFEF24FFFFEE34FFFEED2F
:403FC00034FFFDEC34FFFC9018D6120F249018DDE0FBA3E0FAA3E0F9120D0EFF9018DAE0FBA3E0FAA3E0F9E5F08FF0120D399018DBE475F002120CE29018DEE475F002127B
:404000000CE2808A9018D0E0FBA3E0FAA3E0F9229018887401F0E4A3F09043A6E054FEF07F101277C47C497D157F101269767D077F10127C439043A6E04401F07F0B7E0046
:404040001269FEEF6003024101FF127686EF600302410190188DF07B017D017F0C1258BEEF6003024101FF1276AAEF6003024101FF1276CEEF6003024101901887F09018AD
:4040800087E0FFC394085025EF75F009A42420F9741735F0FA7B01123DEBEF60089018897401F08008901887E004F080D1901889E0704E901887F0901887E0FFC3941050AC
:4040C00025EF75F00DA42450F9741635F0FA7B011223E9EF60089018897401F08008901887E004F080D1901889E070157FFD7E1F127063EF700BFF1276F2EF700490188813
:40410000F07F101277A2901888E0FF229019F7EEF0A3EFF0AE43AF448F828E83A3A374B6F0AE43AF448F828E83A3A3A374D8F0AE43AF448F828E83E5822404F582E583346B
:4041400000F5837405F0AE43AF448F828E83E5822405F582E5833400F583E4F09019F7E0FEA3E0FFEEFF7E00AC43AD448D828C83E5822406F582E5833400F583EFF090195C
:40418000F7E0FEA3E0FFEF54FFFFAC43AD448D828C83E5822407F582E5833400F583EFF0AE43AF448F828E83E0FFAC43AD448D828C83E5822408F582E5833400F583EFF08D
:4041C000AE43AF448F828E83A3E0FFAC43AD448D828C83E5822409F582E5833400F583EFF0AE43AF448F828E83E5822412F582E5833400F5837405F09019F9E4F09019F98C
:40420000E0FF22901892EBF0A3EAF0A3E9F0A3ECF0A3EDF0904722E020E1030242ED9018977401F0A37419F0A37499F0901897E0FBA3E475F001120CF8A9F0FA120CA590FB
:404240004720F0901897E0FBA3E475F001120CF8A9F0FA120CA5904720F0901897E0FBA3E475F001120CF8A9F0FA120CA5904720F0904722E020E16DE4FFFE9019ABE0FDDA
:40428000C3EF9DEE9400501E901897E0FBA3E475F001120CF8A9F0FA120CA5904720F00FEF70010E80D5901895E07002A3E0602DE4FEFFD3901896E09F901895E09E401D6B
:4042C000901892E0FBA3E0FAA3E02FF9EA3EFA120CA5904720F00FEF70010E80D690189A7407F0800E90189A7409F0800690189A7404F090189AE0FF22AB07901994E02492
:40430000F9602C24FC604A24087052ECC4F854F0C868EDC4540F489018A1F0EDC4F8540FC868FFECC454F0489018A0EFF08031EDAE047802CEC313CE13D8F99018A1F0EDAB
:40434000AE047806C333CE33CED8F99018A0F0800F9018A1EDF0E49018A0F080037F0022EB14602814604314605E240370789018A0E0FD7F101260EAEF7002FF229018A150
:40438000E0FD7F111260EAEF705FFF229018A0E0FD7F121260EAEF7002FF229018A1E0FD7F131260EAEF7041FF229018A0E0FD7F141260EAEF7002FF229018A1E0FD7F159C
:4043C0001260EAEF7023FF229018A0E0FD7F161260EAEF7002FF229018A1E0FD7F171260EAEF7005FF227F00227FFF2290188AEFF024FC5007600D14600A801090188B749E
:4044000004F0800B90188B7403F080037F002290188BE0FF7C187D8E124B50EF7002FF2290188AE014601D14602814603314603E14604824057050E490188DF090188C7471
:4044400008F0804390188D7402F090188C7409F0803590188D7404F090188C740AF0802790188D7406F090188C740BF08019E490188DF090188C7407F0800C90188D7402F0
:40448000F090188C7406F090188CE0FF7C187D8F124B50EF7002FF2290188FE075F004A4FFAEF090188DE0FDA3E0FCA805088002C313D8FC5403FDEEEF4DFF90188AE025A5
:4044C000E02487F582E43419F583EEF0A3EFF07FFF2290188AEBF0A3EAF0A3E9F0A3ECF0A3EDF07F01127CE0D390188EE094F090188DE0940740030245AC125A1B90188F0D
:40450000EFF060030245A412795DEF60030245A490188F74FFF07F40127A19EF702C90188AE0FBA3E0FAA3E0F97D107C00124203EFB40716904722E030E1F9904722E0FFBF
:404540001313543F700490188FF090188FE0704990188DE0FCA3E0FD9019E9E0FBA3E0901894F07F4012739BEF702E90188F74FFF07B007A007900E4FDFC124203EFB40718
:404580001E904722E030E1F9904722E0FF1313543F700C90188FF0800690188F74FFF0127FC1800E90188F7404F0800690188F7401F090188FE0FF229018A5EFF0A3EBF023
:4045C000A3EAF0A3E9F0E49018ABF09018AAE030E1099019B9E04401F080079019B9E054FEF09019B5E0FF64106008EF6460600302468F9018AB7401F0EF646060197F3232
:40460000EFD3940040229049D9E0540870069018ABF080141F80E9E49018ABF09019AEE054F7F07F011277E69018ABE070679018A5E0FF25E0F04401FFF09019B57443F013
:404640009018A6E0F9A3E0FAA3E09019AFC9F0A3EAF0A3E9F0E49019B7F09018A9E09019BAF09049D8EFF09018AAE030E00D9049D97402F09049D7E4F080069049D9740129
:40468000F07F011277A29019AEE054FEF080069018AB7402F09018ABE0FF229018AAEFF0A3EBF0A3EAF0A3E9F0E49018B0F09018AFE030E1099019B9E04401F08007901987
:4046C000B9E054FEF09019B5E0FF64106008EF6460600302476A9018B07401F0EF646060197F32EFD3940040229049D9E0540870069018B0F080141F80E9E49018B0F09027
:4047000019AEE054F7F07F011277E69018B0E0705F9018AAE0FF25E0FFF09019B57442F09018ABE0F9A3E0FAA3E09019B2C9F0A3EAF0A3E9F0E49019B8F09018AEE090192B
:40474000ADF09049D8EFF09018AFE030E0089049D97402F080069049D97401F07F011277A29019AEE054FDF080069018B07402F09018B0E0FF2290188EEFF0A3EDF0A3EA26
:40478000F0A3EBF01279E5EF700C90197B04F0A3744FF07F00227F0F127AC7EF700C90197B04F0A37467F07F002290188EE0FF127AC7EF700C90197B04F0A3746BF07F0052
:4047C00022E4FF127AC7EF700C90197B04F0A3746FF07F0022E4901892F0901892E0FFC39408503790188FE0FEEFC39E5011A3E475F001120CF885F082F583E0FF80027FA2
:4048000000127AC7EF700C90197B04F0A37474F07F0022901892E004F080BF7E197F74127582EF700C90197B04F0A37479F07F00227E197F75127582EF700C90197B04F0EB
:40484000A3747DF07F00227FFF22AE43AF448F828E83E5822413F582E5833400F583E4F0125AFD8F3DE53D7046AE43AF44EF2416FFEE3400FE7D007C01123CCA8F3DE53D37
:404880006407702B901A0074FFF0904722E0FFEF20E110901A00E0FFEF6008901A00E014F080E7904722E0FFEF1313543FF53DE53D7061AE43AF448F828E83E5822414F5F9
:4048C00082E5833400F583E0FEA3E0FFEEFF7E0012410C8F3DE53D703B7D007C007F007E00123CCAEF6407702B901A0074FFF0904722E0FFEF20E110901A00E0FFEF600897
:40490000901A00E014F080E7904722E0FFEF1313543FF53D22C0E0C0F0C083C082C085C084C086758600C093759300C0D075D000C000C001C002C003C004C005C006C007C3
:4049400090A000E030E2031271DB90A000E030E30312720890A000E030E40312723590A000E030E50312726290A000E030E60312709490A000E030E70312728F90A001E087
:4049800030E0031272BC90A001E030E1031270C490A001E030E2031272E990A001E030E303126F6490A001E030E403124C06D007D006D005D004D003D002D001D000D0D0D2
:4049C000D093D086D084D085D082D083D0F0D0E0C2AF1249D8D2AF2232901895ECF0A3EDF0901894EFF0B4010AA3E0FEA3E0FF125FCD229018A77418F0A37498F07E187F72
:404A0000977D07126F30901895E475F001120CF885F082F583E0FF9018A7E475F001120CF885F082F583EFF0901895E475F001120CF885F082F583E0FF9018A7E475F0013E
:404A4000120CF885F082F583EFF0901895E475F001120CF885F082F583E0FF9018A7E475F001120CF885F082F583EFF0901895E0FEA3E0F5828E83E0FF9018A7E475F0014C
:404A8000120CF885F082F583EFF07E187F97901894E0FD126CFF22901769E06003024B4F90176DE0C394144003024B4F90176AE0FF90194BE0C39FC394645003024B4F90A1
:404AC000194BE090176AF0E4A3F0A3F0128035901887EFF0128035901887E06FF030E00690176CE004F0901887E030E10690176BE004F0901887EFF090176BE0C394C840F5
:404B0000D390176CE0FFA3E0FE04F0746E2EF582E43417F583EFF090176DE0B41406904210E4F02290176CE0FFC394C44021EFD394CC501B9017697401F09040007440F0B0
:404B40009042007470F09040007440F012778022901890ECF0A3EDF0A3EFF090194BE0FF901997E4F0A3EFF07B017A1879927D017C007F48126B47127FE7901985EFF060EE
:404B80002A24F960030470037F002290194BE0FF901997E0FCA3E0FDC3EF9DFFE49CFED3EF9414EE940040CF7F002290194BE0FF901997E4F0A3EFF0901890E0FEA3E0AAB0
:404BC00006F97B017D017C007F48126B87127FE7901985EFF024FA600A146007240770067FFF227F002290194BE0FF901997E0FCA3E0FDC3EF9DFFE49CFED3EF9414EE94E4
:404C00000040CA7F002290184FE4F0A304F090164CE0FCA3E0FDA3E0FEA3E0FFE4FAF9F8EF2401FFEA3EFEE93DFDE83CFC90164C120F249016237401F0E490184EF09018F4
:404C40004EE0C39410506A7F087EA012784A90184FE0FCA3E0FDEC5EFEED5F4E603E90184EE0FF75F020A424A0F582E5F034A0F583E030E527ED5407601AEF14600C14607E
:404C80000E240270171265B78012126606800D126655800890184EE0FF12750F901850E025E0F090184FE033F090184EE004F0808D90A001E04410F022901887EFF0A3EDFB
:404CC000F07B017A6079889043A5E04401F09043C6E054EFF090609D7401F09060CC7403F09043C6E04410F0905150E0547FF0906084E4F0A3F0FFFEC3EE9402500E898206
:404D00008A8374FFF00FEF70010E80EC7C5F7D6A7F1E1269767D077F1E127C437F1E1277A27C7F7D98E4FF1269767D07E4FF127C43E4FF1277A27C4D7D6C7F1F1269767D28
:404D4000077F1F127C437F1F1277A27C5B7D677F021269767D077F02127C437F021277A2901887E0FFA3E0FD126EFB22C0E0C0F0C083C082C085C084C086758600C09375B3
:404D80009300C0D075D000C000C001C002C003C004C005C006C007906028E09018CDF0E0FF70047E0180027E00EE20E44CEF30E70A7F01127B9912646B80209018CDE03046
:404DC000E60A7F02127B99127979800F9018CDE030E5087F03127B9912771690150FE0FF9014B2E04F906029F090150DE0906028F0D007D006D005D004D003D002D001D079
:404E000000D0D0D093D086D084D085D082D083D0F0D0E0C2AF124E1BD2AF2232904E007424F0A37414F0A37404F0A37406F0A3E4F0A3F0A3743FF0904E08E4F0A3F0A3F0D1
:404E4000904E0EF0904E0CF0A3F0904E1404F0905880740AF0A3E4F0A3747AF0A3E4F0A37450F0A3742CF0A3F0A3E4F0A3745BF0A3745EF0A37455F0A3745AF0A37405F09A
:404E8000A3E4F0A3F0A37430F0A3740AF0A374ABF0A37444F0A3E4F0A37458F0A3E4F0A37407F0A3E4F090589E04F0905B07E04418F090589A7405F0A37402F0A3E4F0A32B
:404EC000F0905B88F0A3F022901898EEF0FAA3EFF0FB901898E0FEA3E0FF2408F582E43EF583E4F0900005E0FDEF2409F582E43EF583E0F4FFED5F900005F0EB2406F58295
:404F0000E43AF583E0FEA3E0FF90189AEEF0A3EFF04E602B90189AE0FEA3E0FF90000AE04EFCA3E04FFD90000AECF0A3EDF0EE6CFEEF6DFF90000AEEF0A3EFF0127C6C909E
:404F40001898E0FEA3E0FF240BF582E43EF583E0A3E090189AF06017EF240BF582E43EF583E4F0A3F090189AE0FF7E00126818229018CE7401F0A37460F0A3E4F09060291A
:404F8000E0540F24FE90150FF0E0FF90161EE02FF090161DE03400F09014A9E0FCA3E0FDD39400EC9400404690150FE0D39400403D9018CEE0A3E475F001120CF885F082A1
:404FC000F583E0FF9014ABE0FBA3E475F001120CF8A9F0FAEF120CBE90150FE014F09014AAE024FFF09014A9E034FFF080AA9014B2E06480F09014B1E0B40115ED4C7011B9
:405000007F08127B999014B17402F090150D14F02290150D740BF022C0E0C083C082C085C084C086758600C093759300C0D075D000C006C007906566E0FFEF30E558901209
:40504000BCE0C394F04010E4F09012BFE0FEE4B506059012C104F0906446E0FE9012BCE024DCF582E43410F583EEF09010DBE060069012C17401F09012BCE004F09012BF88
:40508000E0FE9012BCE0B506069010DB7401F0906566E0FF80A4D007D006D0D0D093D086D084D085D082D083D0E0C2AF1250B2D2AF2232C0E0C083C082C085C084C086750E
:4050C0008600C093759300C0D075D000C006C00790656BE0FFEF30E5589014A3E0C394F04010E4F09014A6E0FEE4B506059014A804F090654AE0FE9014A3E024C3F582E4AE
:405100003412F583EEF09012C2E060069014A87401F09014A3E004F09014A6E0FE9014A3E0B506069012C27401F090656BE0FF80A4D007D006D0D0D093D086D084D085D0A2
:4051400082D083D0E0C2AF12514DD2AF2232E49018D6F0906004E05407FF14FEC454F0FEEF607E75F00AA424B5F582E5F03414F583E04401F075F00AEFA424B6F582E5F01A
:405180003414F583E4F075F00AEFA424B7F582E5F03414F583E030E72175F00AEFA424B4F582E5F03414F5837402F0740E2EF582E43460F583748DF0801F75F00AEFA42441
:4051C000B4F582E5F03414F5837402F0740E2EF582E43460F5837489F0127F009018D6EFF09018D6E0FF22E49018D6F0906004E05407FF14FEC454F0FEEF607D75F00AA4A1
:4052000024B5F582E5F03414F583E054FEF075F00AEFA424B6F582E5F03414F583E4F075F00AEFA424B7F582E5F03414F583E030E72075F00AEFA424B4F582E5F03414F548
:4052400083E4F0740E2EF582E43460F583740CF0801F75F00AEFA424B4F582E5F03414F5837401F0740E2EF582E43460F5837409F0127F009018D6EFF09018D6E0FF22E491
:4052800090196EF090188A742AF0E4901972F0A3F0FE7F08FD7B017A19797D120FF290188AE0FF14F0EF606A123345EF60F090196EE0FFC394205051A3EFF090196E04F0D9
:4052C000EF75F00AA4FF901971E02FFE901970E035F090188BF0A3CEF090188BE0FEA3E0AA06F8AC027D017B017A19797D7E007F0812125C90188CE02408FB90188BE03470
:4053000000FA7D02E4FF1254C3901973E0608F7FFF227F002290161FE0FF90161EE02FF090161DE03400F0E490150FF0D39014AAE094009014A9E09400403E90150FE0FF9F
:40534000940850359014ABE0FBA3E475F001120CF8A9F0FA120CA5FEE42FF582E43460F583EEF090150FE004F09014AAE024FFF09014A9E034FFF080B390150FE0FDD394EF
:4053800000500790161FE0B408139014B2E06480F090150D740FF0A37402F0800890150D7402F0A3F090161FEDF0229018977401F0E4901896F0901896E0FFC3648094885D
:4053C0005077900005E0FE901897E05E605C127AF7AE02AF01901894EEF0A3EFF02408F582E43EF583E07012900005E0FF901897E0FEEF6E900005F08030901894E0FEA33C
:40540000E0FF125848901894E0FEA3E0FF2404F582E43EF583E0FCA3E0FDC390009DE09D90009CE09C4003124EC8901896E004F0A3E0FF25E0F00253B62212527FE4901805
:4054400089F0901970E0FFA3E0901887CFF0A3EFF090196EE0FF901889E0C39F5064901887E0FEA3E0FF2408F582E43EF583E0B40113AA06A9077B01786C7C0E7D017E00F1
:405480007F0A12125C901887E0FEA3E0FF2408F582E43EF583E0B40213AA06A9077B0178767C0E7D017E007F0A12125C901889E004F0901888E0240AF0901887E03400F0AF
:4054C000808F2290188DEFF0A3EDF0A3EAF0A3EBF01279E5EF700C90197B04F0A3741DF07F00227FF0127AC7EF700C90197B04F0A37421F07F002290188DE0FF127AC7EFD0
:40550000700C90197B04F0A37435F07F0022E4FF127AC7EF700C90197B04F0A37439F07F002290188EE0FF14F0EF601DA3E475F001120CF8AFF0FE127582EF70E590197BCA
:4055400004F0A3743EF07F00227FFF22901954E004F090180EF0900000E090180FF0900003E0FCA3E0901810F0ECA3F0900008E0FCA3E0901812F0ECA3F090000AE0FCA3D1
:40558000E0901814F0ECA3F090000EE0901816F090000FE0901817F0900010E0901818F0900011E0901819F0900012E090181AF0900013E090181BF0900014E090181CF082
:4055C000900015E090181DF07F107E00127C802290188BEDF0A3EAF0A3EBF090188AEFF0B4010DA3E0FFA3E0FCA3E0FD1242F92290189E7418F0A3748FF07E187F8E7D09E5
:40560000126F3090188BE0FF90189EE475F001120CF885F082F583EFF090188CE0FEA3E0FD90189EE475F001120CF885F082F583EDF0EEFF90189EE475F001120CF885F027
:4056400082F583EFF07E187F8E90188AE0FD126CFF2290189DECF0A3EDF090189CEFF09019D7E06F601790189CE0FD7FE11266F1EF7002FF2290189CE09019D7F090194B02
:40568000E09019D6F07B017A1979D27D017C007F18126B879019D2E0FF90189DE0FCA3E0F5828C83EFF0127FE79019D5EFF024FA600A146007240770067FFF227F002290FF
:4056C00019D6E0FF90194BE0C39FD3941440D77F0022901A07E0705D04F09049DB7404F0E4FDEDD39406502274017E00A805088005C333CE33CED8F9C3941EEE9400400757
:405700009049DBEDF080030D80D87F011277C47C217D7C7F011269767D077F01127C437F011277A29049D7E4F09049D67406F09049C87481F0E49019B6F09019B57410F074
:405740009043A5E04404F0127ECC127ED9127FC9227E007F067D007B017A197993120FF290194BE0FF901997E4F0A3EFF07E007F0E7D007B017A197985120FF290194BE0C5
:40578000FF901997E0FCA3E0FDC3EF9DFFE49CFEC3EF9414EE940040E312788C12788C7D297F181260EAEF60257D207F191260EAEF601B7D0A7F1A1260EAEF60117D0C7F6B
:4057C0001B1260EAEF60077D307F1C1260EA229018AB120F24E4FF7E80FDFC9018ABE0F8A3E0F9A3E0FAA3E0FBD3120E9940369019C4E0FCA3E0FDA3E0FEA3E0FF127000B2
:405800009018ABE0FCA3E0FDA3E0FEA3E0C39400FFEE9480FEED9400FDEC9400FC9018AB120F2480B09019BBE0FCA3E0FDA3E0FEA3E0FF9018ABE0F8A3E0F9A3E0FAA3E033
:40584000FB120D5812700022AB07AA068B828A83A3A3E0FEA3E0FFC3900099E09FFF900098E09E90009CF0A3EFF08B828A83E0FEA3E0FFC3900097E09FFF900096E09E902C
:40588000009AF0A3EFF0AE02AF038F828E83E0FEA3E0FFC3900097E09F900096E09E500F90009DE024FFF090009CE034FFF02290009BE02480F090009AE03444F02279026D
:4058C000EFC39402406AEFD3940F5064EDC394024006EDD39407400B90188DE07052ED6401704DEBD394035047EB9F5043EB9D503F790190A015E0FE54F0FE4FFEF0E06EFB
:40590000702E90A014E0FE5411FEE4FE90188DE060037402FEAF03EF25E025E0FFEDC43354E04F4EFE90A014F0FFE0B50702E4F9AF0122C0E0C083C082C085C084C0867530
:405940008600C093759300C0D075D000C006C0079012BDE0FF9012C0E0FE6F602D906463E054047025EEC394F040059012C0E4F09012C0E024CCF582E43411F583E0906478
:4059800043F09012C0E004F080C6D007D006D0D0D093D086D084D085D082D083D0E0C2AF1259A6D2AF2232C0E0C083C082C085C084C086758600C093759300C0D075D000BE
:4059C000C006C0079014A4E0FF9014A7E0FE6F602D90646BE054047025EEC394F040059014A7E4F09014A7E024B3F582E43413F583E090644BF09014A7E004F080C6D007A2
:405A0000D006D0D0D093D086D084D085D082D083D0E0C2AF125A1AD2AF22327F01127CE090189174FFF012795DEF70557B047DFF7C0F7F0112736FEF7042FBFAF9FDFC12B3
:405A40004203EF64077035901890743EF07B017A1979E97D02126786EFB40207E4901891F08019E47F01FEFDFC1257CF901890E014F0E06007904722E030E1D1127FC18044
:405A8000069018917404F0901891E0FF221279E5EF700C90197B04F0A374EFF07F00227F55127AC7EF700C90197B04F0A374F3F07F0022901978E0FF127AC7EF700C9019CF
:405AC0007B7402F0A314F07F0022901979E0FF127AC7EF700D90197B7402F0A37405F07F002290197AE0FF127AC7EF700D90197B7402F0A37409F07F00227FFF22AE43AF4A
:405B0000448F828E83A3A374B6F0AE43AF448F828E83A3A3A374D5F0AE43AF448F828E83E5822404F582E5833400F5837402F0AE43AF448F828E83E5822405F582E5833448
:405B400000F583E4F0AE43AF448F828E83E5822412F582E5833400F5837401F0901A01E4F0901A01E0FF22C0E0C0F0C083C082C085C084C086758600C093759300C0D0751C
:405B8000D000C000C001C002C003C004C005C006C007127FF390600EE0FF9014C0E06480F09014BE7401F090600BE054FEF0D007D006D005D004D003D002D001D000D0D060
:405BC000D093D086D084D085D082D083D0F0D0E032AC07EFC394105060AF04EF1313543FFFC374039FFFE49400FEE92FF9EA3EFA901894EBF0A3EAF0A3E9F0EC5403FF25F1
:405C0000E0FF7403A807088002C333D8FCFFED6013901894E0FBA3E0FAA3E0F9120CA54F120CBE22901894E0FBA3E0FAA3E0F9120CA5FEEFF45E120CBE22AC07EFC3942063
:405C4000505EAF04EF131313541FFFC374039FFFE49400FEE92FF9EA3EFA901894EBF0A3EAF0A3E9F0EC5407FF7401A807088002C333D8FCFFED6013901894E0FBA3E0FAE7
:405C8000A3E0F9120CA54F120CBE22901894E0FBA3E0FAA3E0F9120CA5FEEFF45E120CBE22124A979014B1E0FF901768E06F601CEFF02410FF127B99901787E02420FF12AC
:405CC0007B9990178AE02430FF127B999014B1E06402702D901783E0244B60162406701C901782E004F090161DE0A3E0FF12132E800A90161DE0A3E0FF1237C2127DBE802D
:405D0000A3127EA5123BA1229012BEE0705204F07C507D187F181269767D077F18127C437F181277A29065867420F0906596E04410F07C597D337F081269767D077F081226
:405D40007C437F081277A290642C7407F090643C7448F09064837402F0906493E04410F0906496E04420F09043A2E04402F0229014A5E0705204F07C507DB37F1A126976F3
:405D80007D077F1A127C437F1A1277A290658B7420F090659BE04410F07C597DA77F0C1269767D077F0C127C437F0C1277A29064247407F09064347448F090648B7402F032
:405DC00090649BE04410F0906594E04420F09043A2E04404F02290188AEEF0A3EFF0900F87E0B4010C90188AE0FEA3E0FF12641422900F88E0602C900F9BE0FF900F89E039
:405E0000C39F501FE004F0E0249BF582E4340FF583E0FF90188AE0FCA3E0F5828C83EFF07F01227E0F7F9A7D0D126F307E0F7F9A900F87E0FD126CFF7F002290188BEDF0D9
:405E400090188AEFF0FE90188C7401F0A37419F0A37466F0901953E0FFB5061690188BE0603AA3E0FBA3E0FAA3E0F9E4FD125BD1802A90188AE0FFA3E0FDA3E0FBA3E0FAC8
:405E8000A3E0F9125BD1901953E0FF90188BE0FDA3E0FBA3E0FAA3E0F9125BD1127E982290188CEFF09012C0E0FF14FE9012BDE0FD6E60F1C3ED9F64EF60EA12805F90125E
:405EC000BDE0FF9012C0E0B50712906463E05404700A90188CE0906443F08025EFC394F04005E49012BDF090188CE0FF9012BDE024CCF582E43411F583EFF09012BDE004E3
:405F0000F01280592290188CEFF09014A7E0FF14FE9014A4E0FD6E60F1C3ED9F64EF60EA1280779014A4E0FF9014A7E0B5071290646BE05404700A90188CE090644BF08048
:405F400025EFC394F04005E49014A4F090188CE0FF9014A4E024B3F582E43413F583EFF09014A4E004F012807122C0E0C0F0C083C082C085C084C086758600C0937593001F
:405F8000C0D075D000C000C001C002C003C004C005C006C007901510E0FF906009E0FD126EFBD007D006D005D004D003D002D001D000D0D0D093D086D084D085D082D083C8
:405FC000D0F0D0E0C2AF125FCCD2AF22329018A9EEF0A3EFF0901969E05403FF1280117F01127F557F08127D7E7F08127F559018A9E0FEA3E0AA06F97B01C0039018B1EBCD
:40600000F0A37419F0A3746AF0E4A3F0A3F0D0037D04FC7F0112630B7F04127D7E7F04127F557F02127F557F02127D7E22901894EEF0A3EFF090194AE0FEA3E0FF9018944A
:40604000E0FCA3E0F5828C83A3A3EEF0A3EFF0127E46901894E0FCA3E0F5828C83A3A3E0FCA3E0FD90194AE0FAA3E0FBEDB503C5ECB502C1C3E49FFFE49EFE901894E0FC06
:40608000A3E0F5828C83EEF0A3EFF022EFC394075057EF2FFF25E0241CF582E4348FF583E493FC740193F5828C83C083C082E0FEEF908F3893F4FDEE5DD082D083F00FEF5D
:4060C00025E0241CF582E4348FF583E493FC740193F5828C83C083C082E0FEEF908F3893F4FFEE5FD082D083F02290194BE0FB901997E4F0A3EBF09018A2EFF0A3EDF07B0C
:40610000017A1879A27D027C007F48126B47127FE7901985EFF024FA600A146007240770067FFF227F002290194BE0FF901997E0FCA3E0FDC3EF9DFFE49CFED3EF9414EE2E
:40614000940040CA7F0022EFC394075055EF2FFF25E0241CF582E4348FF583E493FC740193F5828C83C083C082E0FEEF908F3893FDEE4DD082D083F00FEF25E0241CF58232
:40618000E4348FF583E493FC740193F5828C83C083C082E0FEEF908F3893FFEE4FD082D083F0221280539012BCE0FF9012BFE0FEB507099010DBE0D3940040309010DBE0DD
:4061C000D394004002E4F0EEC394F04005E49012BFF09012BFE024DCF582E43410F583E090188EF09012BFE004F08008906446E090188EF012804D90188EE0FF221280531D
:406200009012BCE0FF9012BFE0FEB507189010DBE0D39400400890188E74F0F08030E490188EF08029EEC39F50119012BFE0FF9012BCE0C39F90188EF080139012BFE0FF8D
:40624000C374F09FFF9012BCE02F90188EF012804D90188EE0FF2212806B9014A3E0FF9014A6E0FEB507099012C2E0D3940040309012C2E0D394004002E4F0EEC394F0404F
:4062800005E49014A6F09014A6E024C3F582E43412F583E090188EF09014A6E004F0800890654AE090188EF012806590188EE0FF2212806B9014A3E0FF9014A6E0FEB5076B
:4062C000189012C2E0D39400400890188E74F0F08030E490188EF08029EEC39F50119014A6E0FF9014A3E0C39F90188EF080139014A6E0FFC374F09FFF9014A3E02F90189E
:406300008EF012806590188EE0FF229018ABEFF0A3ECF0A3EDF0A3EBF0A3EAF0A3E9F09018AC74FFF5F0120CF845F060369018AEE0FBA3E475F001120CF8A9F0FA120CA5F2
:40634000FF127E63127E37EF60FA12802F9018B1E0FBA3E475F001120CF8A9F0FAEF120CBE80BC22C0E0C0F0C083C082C085C084C086758600C093759300C0D075D000C0D8
:4063800000C001C002C003C004C005C006C007127DECD007D006D005D004D003D002D001D000D0D0D093D086D084D085D082D083D0F0D0E0C2AF1263BCD2AF2232901894A0
:4063C000EBF0A3EAF0A3E9F0901894E0FBA3E475F001120CF8A9F0FAE4120CBE901894E0FBA3E475F001120CF8A9F0FAE4120CBE901894E0FBA3E475F001120CF8A9F0FA42
:40640000E4120CBE901894E0FBA3E0FAA3E0F9E4120CBE2290188CEEF0A3EFF0901A03E030E01F1261FDEFD3940040131261A390188CE0FCA3E0F5828C83EFF07F01227F12
:406440000022901A03E030E11F1262B1EFD39400401312625790188CE0FCA3E0F5828C83EFF07F01227F00227F00227F02126A41E49014B1F07F04127B99906000E0546034
:4064800024E0601224E0601824407023121C069018CEEFF0801E1280959018CEEFF080147F05127B991231949018CEEFF08005E49018CEF09018CEE0700690150D7403F032
:4064C0002290188CEDF090188BEFF0900F87F0B4010A90188CE0FF1278CA803590189D7418F0A3748EF07E187F8D7D08126F3090188CE0FF90189DE475F001120CF885F00B
:4065000082F583EFF07E187F8D90188BE0FD126CFF127DCE22AB07AA069018C5E0FCA3E0FDA3E0FEA3E0FFA3120F249018CCE08B828A83F09018CBE0FFEB2401FDE43A8D56
:4065400082F583EFF09018CAE0FFEB2402FDE43A8D82F583EFF09018C9E0FFEB2403FDE43A8D82F583EFF02275F030EFA424AEF582E5F0340FAD82FC9018A0F0A3EDF07A74
:40658000007B04AE02C003EF2441FFAA04A9057B01FDD007120FF29018A1E02404FF9018A0E03400A807FC7D017B017A1679247E007F2C12125C2290A0ABE0901851F0905A
:4065C000A0AAE0901852F090A0A9E0901853F090A0A8E0901854F090A0AFE0901855F090A0AEE0901856F090A0ADE0901857F090A0ACE0901858F07E187F511234D190A0E2
:40660000A0E04401F02290A0CBE0901851F090A0CAE0901852F090A0C9E0901853F090A0C8E0901854F090A0CFE0901855F090A0CEE0901856F090A0CDE0901857F090A0DF
:40664000CCE0901858F07E187F51122E2090A0C0E04401F02290A0EBE0901851F090A0EAE0901852F090A0E9E0901853F090A0E8E0901854F090A0EFE0901855F090A0EEF7
:40668000E0901856F090A0EDE0901857F090A0ECE0901858F07E187F51122C4490A0E0E04401F02290188AEDF0901924E02DD3944040079019207402F02290188AE0FD7C52
:4066C00000C004C005AA06A9077B01C001901924E024E0F9E43418A801FC7D01D001D007D00612125C90188AE0FF901924E02FF02290194BE09019D6F09019D2EFF0A3ED4D
:40670000F07B017A1979D27D027C007F18126B47127FE79019D5EFF024FA600A146007240770067FFF227F00229019D6E0FF90194BE0C39FD3941440D77F002290188CED17
:40674000F090188BEFF0B40107A3E0FF127DFB2290189D7418F0A3748EF07E187F8D7D0A126F3090188CE0FF90189DE475F001120CF885F082F583EFF07E187F8D90188B22
:40678000E0FD126CFF22901892EBF0A3EAF0A3E9F0A3EDF07FF07E00E4FD901895E0FCEDC39C5029904722E020E007EF1F70011E80F2904720E0FC901892E0FBA3E0FAA32C
:4067C000E02DF9E43AFAEC120CBE0D80CDAF052290194BE09019D6F09019D2EFF07B017A1979D27D017C007F18126B47127FE79019D5EFF024FA600A146007240770067F3F
:40680000FF227F00229019D6E0FF90194BE0C39FD3941440D77F002290189CEEF0A3EFF0900006E0C3940C4004127F7422900003E0FEA3E0FF900006E0FD04F075F002ED39
:40684000A42416F582E5F03400F583EEF0A3EFF090189CE0FFA3E0900003CFF0A3EFF022127CA77F007E001275A88E438F44125A1B9019E9E0FFAC43AD448D828C83EFF06C
:406880009019EAE0FFAC43AD448D828C83A3EFF0AE43AF448F828E83E5822413F582E5833400F583E4F0229019CDE0701A04F0124E1C7F10127F197D077F1D127C437C7F4C
:4068C0007D867F1D1269769043AAE04401F09043C5E04401F0905877E04406F0904E007424F09043A1E04401F0127FB122EF2403FDE43E8D82F583E09018A4F0EF2402FD13
:40690000E43E8D82F583E09018A5F0EF2401FDE43E8D82F583E09018A6F08F828E83E09018A7F09018A4E0FCA3E0FDA3E0FEA3E0FF2290188BEDF090188AEFF0B40107A32B
:40694000E0FF126C0622E4900E66F07E187F8C7D0E126F3090188BE090188DF07E187F8C90188AE0FD126CFF127D5EEF60077E0E7F66126D772290188AECF0A3EDF075F0B9
:4069800002EFA42400F582E5F03444F583E0FDA3E090188CCDF0A3EDF0EF75F002A42400FFE5F03444FE90188AE0FCA3E0FD12773A90188CE0FEA3E0FF22C2D5E830E70FFD
:4069C000B2D5E4C39BFBE49AFAE499F9E498F8EC30E717B2D51269F0120DE3E4C39BFBE49AFAE499F9E498F88003120DE330D50DE4C39FFFE49EFEE49DFDE49CFC229018A4
:406A00008AEEF0A3EFF0A37402F0D3EF94FFEE947F50287401F090188AE0FCA3E0FD7F167EA012773A7F167EA012784A90188AE0B50608A3E0B50703E4A3F090188CE0FF04
:406A4000229014AEE0FBA3E0FAA3E04A4B60349014AEE0A3E0A3E0F9EF120CBE90161DE0FEA3E0FF9014AEE0FBA3E0FAA3E02401F9E43AFAEE8FF0120D399014AEE4F0A38E
:406A8000F0A3F022AB07AA06900E60EAF0A3EBF0127FA1E47F207E02FDFC9018A0120F24E49018A4F0A3F0A37408F0A37401F0AF03A907A3F0A3EAF0A3E9F07B017A18797F
:406AC000A0121EC522AB07AA06900E62EAF0A3EBF0127FA1E47F227E02FDFC901863120F24E4901867F0A3F0A37408F0A37401F0AF03A907A3F0A3EAF0A3E9F07B017A181C
:406B00007963121EC522901A09E0703304F0904F00E05401F0A3E054F1F0E04401F07F807EBB127F497F807EBB12809A9043A3E04401F0904F01E04401F07F081280479081
:406B40004F00E04401F0229018A4EFF0A3ECF0A3EDF0A3EBF0A3EAF0A3E9F0127FC99018A4E0FF9018A7E0FBA3E0FAA3E0F99018A5E0A3E09018AEF0E4A3F012469B901A3C
:406B800002EFF01274982290189FEFF0A3ECF0A3EDF0A3EBF0A3EAF0A3E9F0127FC990189FE0FF9018A2E0FBA3E0FAA3E0F99018A0E0A3E09018A9F0E4A3F01245B8901A5E
:406BC00002EFF012749822AB07AA06127FA1AF05E4FCFDEF4480FF7403FEE4901863120F24E4901867F0A3F0A37408F0A37401F0AF03A907A3F0A3EAF0A3E9F07B017A186B
:406C00007963121EC52290189CEFF070057F051265687DA27C1090189CE075F004A42DFDE5F03CFCFAA9057B0178687C0E7D017E007F0412125C90189CE0900E67F0900E0F
:406C4000667401F02290193EE090192EF0601D24AB60192456701D901944E0600890192F7455F08014E490192FF0800D90192EE0A3F08005E490192FF090192FE0B45503FB
:406C8000126FFC2290188AEFF0B40113127A33901950E0FFA3E0900E64CFF0A3EFF02290189B7418F0A3748CF07E187F8B7D0F126F307E187F8B90188AE0FD126CFF127DF3
:406CC0005E22901924E0FFD39440500A9018D0E4F0A3EFF080099018D0E4F0A37440F09018D0E0FEA3E0FF78CE7C177D017B017A1879E012125C9018D0E0FEA3E0FF22ABC2
:406D000007AA06127FA1AF05E4FCFDEF7403FEE49018A9120F24E49018ADF0A3F0A37408F0A37401F0AF03A907A3F0A3EAF0A3E9F07B017A1879A9121EC52290188AEFF0E2
:406D4000900F87E0B4010990188AE0FF1275CE22900F8BE0FF0F90188AE0FE748B2FF582E4340FF583EEF0900F8BEFF0C394064003127D6E7F01229018A0EEF0A3EFF0E4A9
:406D8000A3F09018A2E0C3940550229018A0E0FEA3E0F5828E83E060037F0122E47F01FEFDFC1257CF9018A2E004F080D57F0022E490161DF0A3F09014AEE0FBA3E0FAA314
:406DC000E04A4B60239014AEE0A3E0A3E0F9E4120CBE9014AEE0FBA3E0FAA3E02401F9E43AFAE4F5F0120D3922901897EEF0A3EFF0E4A3F0901899E0C394085021901897BE
:406E0000E475F001120CF885F082F583E0FF127AC7EF7002FF22901899E004F080D67FFF2290188AEFF0A3EDF0A3EAF0A3EBF0124776EF7002FF2290188AE0FFA3E0FDA3B3
:406E4000E0FAA3E0FB123924EF7002FF22125A8DEF7002FF227FFF2290150E7404F09014B27480F0126DB0906007E0FE906006E0FDEEEDFFD39014AAE09F9014A9E09E40FD
:406E800005EEF0A3EFF090150D740BF07F01229019DE747FF0A304F07F7FEF601614FE75F008EFA42400F582E5F03478F583EEF01F80E775F008EFA42400F582E5F0347820
:406EC000F583E4F0229019E3EBF0A3EAF0A3E9F0120CA5D39401401D9019E3E0FBA3E0FAA3E02401F9E43AFA120CA5B403079019E07401F022E49019E0F022ED440290606C
:406F000009F0901510EFF0E4901613F0901620F0901621F0901511F0F090150EF09060287403F09060087480F09060127404F0229018ABEDF09018A9EEF0A3EFF07C007DD0
:406F400010C004AF057D33AA06F97B01D006120FF29018ABE0FF9018A9E0FCA3E0F5828C83EFF022901648E0FCA3E0FDA3E0FEA3E0FFE4FAF9F8EF2401FFEA3EFEE93DFDEA
:406F8000E83CFC901648120F249016227401F090A001E04408F02290150E7402F0E49014B2F0126DB0906007E0FE906006E0FDEEEDFFD39014AAE09F9014A9E09E4005EE50
:406FC000F0A3EFF01253157F01227E007F017D007B017A1979D4120FF27E007F057D007B017A1979D5120FF290194BE09019D6F07FF01267D09019D774F0F02212283322AA
:40700000904800E0C41313540390702E9304FB2B2B2417F404FB78FF00EC4D4E4F600EEF2BFFEE38FEED38FDEC38FC40EC2205020304C3900002E0942C900001E094015032
:407040001EE475F001120CF8FEE5F07803C333CE33CED8F9249EF58274003EAF82FE22E4FEFF2290188AEEF0FCA3EFF0FDA37401F07F047EA012773A7F047EA012784A9073
:40708000188AE0B50608A3E0B50703E4A3F090188CE0FF22901634E0FCA3E0FDA3E0FEA3E0FFE4FAF9F8EF2401FFEA3EFEE93DFDE83CFC901634120F24127BC590A000E098
:4070C0004440F022901640E0FCA3E0FDA3E0FEA3E0FFE4FAF9F8EF2401FFEA3EFEE93DFDE83CFC901640120F24127DDD90A001E04402F0227FB41267D0EF7002FF229019C3
:40710000D774F0F07F60127123EF7002FF229019D4E0FE30E2037F0022EE20E1037F00227FFF2290189AEFF090189AE0FF14F0EF601D127F609019D4E030E01090189B7402
:407140000AF090189BE060E014F080F67FFF227F0022758600EF4E6023EF60010E8C838D828B958A858984E493A30586F0A31586E585458470020595DFEDDEEBE4F595224D
:40718000ACEAADA08E838F82E493F9601CA3E493F5EAA3E493F5A0A3E49360F1FAA3E493F8A3E493F2DAF6D9E48DA08CEA2290193FE0901930F02412600C24EE7012E49026
:4071C0001931F0A3F02290193174EEF0E4A3F02290193174CCF0A374FFF022901624E0FCA3E0FDA3E0FEA3E0FFE4FAF9F8EF2401FFEA3EFEE93DFDE83CFC901624120F2426
:4072000090A000E04404F022901628E0FCA3E0FDA3E0FEA3E0FFE4FAF9F8EF2401FFEA3EFEE93DFDE83CFC901628120F2490A000E04408F02290162CE0FCA3E0FDA3E0FE3C
